:100000000C943C000C942F050C9459050C9483051A
:100010000C9416070C9416070C9416070C941607EC
:100020000C9416070C9416070C9416070C941607DC
:100030000C9416070C9416070C9416070C941607CC
:100040000C9416070C9416070C9416070C941607BC
:100050000C94160700600090000E3A009000AE80ED
:1000600000AE00D5000E6A00D500D98000D900DBB3
:10007000000E9100DB00DC8011241FBECFE5D8E02C
:10008000DEBFCDBFE4E5F0E040E017C0B591A5913B
:1000900035912591059107FD0CC095918591EF0152
:1000A000F92FE82F05900D92A217B307D9F7FE019B
:1000B00004C01D92A217B307E1F7E837F40731F740
:0C00C0000E94F7060C94CA06F894FFCFCB
:1000CC000F931F93CF93DF9300D000D0CDB7DEB743
:1000DC008C016C838091DA0081110E94A503198236
:1000EC001A821B82198299818C81981708F0BAC0E8
:1000FC0021E030E0898190E0FC01EE0FFF1F8E0FB4
:10010C009F1FF801E80FF91F808183708A83898112
:10011C0090E0FC01EE0FFF1F8E0F9F1FF801E80F00
:10012C00F91F818187708B83898190E0FC01EE0F30
:10013C00FF1F8E0F9F1FF801E80FF91F828181119D
:10014C002DC08B81EA81F0E0EE0FFF1FE057FF4FCF
:10015C000190F081E02D4081B90102C0660F771F3C
:10016C008A95E2F7CB0180959095842380838B81CF
:10017C00EA81F0E0EE0FFF1FE856FF4F0190F0818F
:10018C00E02D4081B90102C0660F771F8A95E2F716
:10019C00CB0180959095842380835CC0898190E00D
:1001AC00FC01EE0FFF1F8E0F9F1FF801E80FF91FC8
:1001BC008281813071F580B78B7F80BF8B81EA8122
:1001CC00F0E0EE0FFF1FE057FF4F0190F081E02DA4
:1001DC004081B90102C0660F771F8A95E2F7CB0107
:1001EC0080959095842380838B81EA81F0E0EE0FDB
:1001FC00FF1FE856FF4F0190F081E02D4081B901BF
:10020C0002C0660F771F8A95E2F7CB01842B80839F
:10021C0021C0898190E0FC01EE0FFF1F8E0F9F1F04
:10022C00F801E80FF91F82818230A1F48B81EA81F9
:10023C00F0E0EE0FFF1FE057FF4F0190F081E02D33
:10024C004081B90102C0660F771F8A95E2F7CB0196
:10025C00842B808389818F5F898399818C81981706
:10026C0008F448CF0F900F900F900F90DF91CF9123
:06027C001F910F9108958F
:10028200CF93DF93EC0161E0888199810E9466003F
:1002920061E08A819B810E946600688579858A85F2
:1002A2009B850E94F0018F81813039F018F08230F5
:1002B20031F007C0539A5E9A04C0549A02C0539A0E
:1002C200549A80B5806880BD8C81813069F018F0C5
:1002D200823099F01BC080B5807C80BD8091DB00AC
:1002E200877F8093DB0012C080B5806380BD8091E0
:1002F200DB0088608093DB0009C080B58F7C806260
:1003020080BD8091DB0088608093DB0080B58068CF
:1003120080BD8D81882319F0813029F007C080B516
:10032200877F80BD03C080B5886080BD80B580684E
:1003320080BD8E818230B1F028F4882341F0813073
:1003420059F024C08330A1F08430B9F01FC080B5C9
:10035200887F80BD52981AC080B5897F826080BD37
:10036200529814C080B5897F846080BD52980EC0B7
:1003720080B5866080BD529809C080B5866080BD18
:10038200529A8091DB0081608093DB008D859E858F
:100392009093D8008093D7008C858823A9F01CF411
:1003A2008F3F31F019C0813091F0823099F014C042
:1003B200F8948091DB0082608093DB008091DB0007
:1003C20084608093DB0008C0569A789405C0559AE1
:0E03D200789402C0579A7894DF91CF910895E5
:1003E000CF92DF92EF92FF92CF93DF9300D000D0B5
:1003F00000D0CDB7DEB70E94E90320E030E040E84E
:1004000051E40E9409079B01AC0160E074E284EFB3
:100410009AE40E94050720E030E040E85FE30E9494
:10042000D50669837A838B839C831E821D82C98053
:10043000DA80EB80FC8069817A818B819C810E94CB
:10044000D30480E090E00E94E9039B01AC01C70166
:10045000B6010E94D50620E030E040E05FE30E9454
:10046000FC068823A4F069817A818B819C810E949B
:10047000D3046F5F7F4F7E836D838D819E8189B9A9
:1004800080B58F7780BD8D819E8190BD11C06981BF
:100490007A818B819C810E94D3047E836D838D81C0
:1004A0009E8189B980B58F7780BD8D819E8190BDF9
:1004B00026960FB6F894DEBF0FBECDBFDF91CF9169
:0A04C000FF90EF90DF90CF900895B9
:1004CA0010C00E94E30658F00E94DC0640F029F4AE
:1004DA005F3F29F00C94F10651110C94EB060C9431
:1004EA0013070E94390668F39923B1F3552391F350
:1004FA00951B550BBB27AA2762177307840738F089
:10050A009F5F5F4F220F331F441FAA1FA9F335D0E5
:10051A000E2E3AF0E0E832D091505040E695001C99
:10052A00CAF72BD0FE2F29D0660F771F881FBB1F53
:10053A00261737074807AB07B0E809F0BB0B802D31
:10054A00BF01FF2793585F4F3AF09E3F510578F05D
:10055A000C94F1060C94EB065F3FE4F3983ED4F357
:10056A00869577956795B795F7959F5FC9F7880F31
:10057A00911D9695879597F90895E1E0660F771F83
:10058A00881FBB1F621773078407BA0720F0621B14
:0E059A00730B840BBA0BEE1F88F7E0950895E3
:1005A8000FC00E94DC0638F00E94E30620F0952375
:1005B80011F00C94F1060C94130711240C94EB061B
:1005C8000E94390670F3959FC1F3950F50E0551FAF
:1005D800629FF001729FBB27F00DB11D639FAA2790
:1005E800F00DB11DAA1F649F6627B00DA11D661FDF
:1005F800829F2227B00DA11D621F739FB00DA11D00
:10060800621F839FA00D611D221F749F3327A00DB9
:10061800611D231F849F600D211D822F762F6A2F55
:1006280011249F5750409AF0F1F088234AF0EE0FBA
:10063800FF1FBB1F661F771F881F91505040A9F7E7
:100648009E3F510580F00C94F1060C94EB065F3F39
:10065800E4F3983ED4F3869577956795B795F79523
:10066800E7959F5FC1F7FE2B880F911D969587959B
:0406780097F9089551
:10067C0011C00E94DC0638F00E94E30620F039F429
:10068C009F3F19F426F40C9413070EF4E095E7FB46
:10069C000C94F106E92F0E94390658F3BA17620739
:1006AC0073078407950720F079F4A6F50C94EA06F5
:1006BC000EF4E0950B2EBA2FA02D0B01B901900171
:1006CC000C01CA01A0011124FF27591B99F0593FB5
:1006DC0050F4503E68F11A16F040A22F232F342FFD
:1006EC004427585FF3CF469537952795A795F0404B
:1006FC005395C9F77EF41F16BA0B620B730B840B60
:10070C00BAF09150A1F0FF0FBB1F661F771F881F17
:10071C00C2F70EC0BA0F621F731F841F48F487956F
:10072C0077956795B795F7959E3F08F0B0CF939561
:0E073C00880F08F09927EE0F9795879508957E
:10074A00CF93DF93C8E9D0E08BE390E09983888365
:10075A00A0E9B0E08AE390E011969C938E93E0EAD8
:10076A00F0E089E390E09183808388E390E09B83C3
:10077A008A8387E390E013969C938E93129786E37D
:10078A0090E09383828385E390E09D838C8384E366
:10079A0090E015969C938E93149783E390E095834B
:1007AA00848382E390E09F838E8381E390E01796AF
:1007BA009C938E93169780E390E09783868310929A
:0807CA00DA00DF91CF910895E0
:1007D200E89409C097FB3EF49095809570956195D9
:1007E2007F4F8F4F9F4F9923A9F0F92F96E9BB278F
:1007F2009395F695879577956795B795F111F8CF0B
:10080200FAF4BB0F11F460FF1BC06F5F7F4F8F4F75
:100812009F4F16C0882311F096E911C0772321F06B
:100822009EE8872F762F05C0662371F096E8862F03
:1008320070E060E02AF09A95660F771F881FDAF75A
:0A084200880F9695879597F90895A1
:10084C000F931F93CF93DF9300D000D0CDB7DEB7BB
:10085C008C011A8219821C821B821A821982E981EC
:10086C00FA81E80FF91F80818823E1F0E981FA8190
:10087C00E00FF11F80810E94F4058B819C81019611
:10088C009C838B838B819C810E945B0689819A81DE
:10089C0001969A838983E981FA81E00FF11F8081A7
:1008AC008111E4CF0F900F900F900F90DF91CF91AB
:0608BC001F910F91089549
:1008C200CF93DF930F92CDB7DEB719821982998148
:1008D2008091D9009817B0F40E940D07298130E069
:1008E200220F331F820F931F61E0FC0180819181EF
:1008F2000E94660089818F5F898399818091D900E6
:10090200981750F383ED90E30197F1F700C00000D0
:1009120088E30E94D1058EE00E94D10586E00E9404
:10092200D10580E80E94D1050E9401070F90DF9156
:04093200CF910895C4
:100936000F931F93CF93DF9300D0CDB7DEB7FC01A3
:100946008091DB0082FF02C05F9BFECF9BB1969534
:100956009695977049F08F010E94B0068FEF9FEF32
:10096600F8019183808315C08091DB0080FF0DC064
:100976008AB1869581708A838CB1898389812A811F
:1009860090E0922B9183808304C08CB190E0918398
:1009960080830F900F90DF91CF911F910F91089553
:1009A6000E94410688F09F5798F0B92F9927B751B2
:1009B600B0F0E1F0660F771F881F991F1AF0BA95FD
:1009C600C9F714C0B13091F00E94EA06B1E008956B
:1009D6000C94EA06672F782F8827B85F39F0B93F5D
:1009E600CCF3869577956795B395D9F73EF49095B0
:0E09F6008095709561957F4F8F4F9F4F0895AC
:100A04004130A1F4E82FF0E0EE0FFF1FE856FF4F4E
:100A14000190F081E02D208181E090E002C0880FF8
:100A2400991F6A95E2F7822B80830895411114C0BF
:100A3400E82FF0E0EE0FFF1FE856FF4F0190F08122
:100A4400E02D208181E090E002C0880F991F6A9513
:0A0A5400E2F7809582238083089565
:100A5E001F920F920FB60F9211242F933F934F9325
:100A6E005F936F937F938F939F93AF93BF93EF9308
:100A7E00FF938AB780648ABFE091A800F091A90025
:100A8E000995FF91EF91BF91AF919F918F917F91BA
:100A9E006F915F914F913F912F910F900FBE0F90DD
:040AAE001F901895E8
:100AB2001F920F920FB60F9211242F933F934F93D1
:100AC2005F936F937F938F939F93AF93BF93EF93B4
:100AD200FF938AB780688ABFE091AA00F091AB00C9
:100AE2000995FF91EF91BF91AF919F918F917F9166
:100AF2006F915F914F913F912F910F900FBE0F9089
:040B02001F90189593
:100B06001F920F920FB60F9211242F933F934F937C
:100B16005F936F937F938F939F93AF93BF93EF935F
:100B2600FF938AB780628ABFE091AC00F091AD0076
:100B36000995FF91EF91BF91AF919F918F917F9111
:100B46006F915F914F913F912F910F900FBE0F9034
:040B56001F9018953F
:100B5A00990F0008550FAA0BE0E8FEEF16161706C4
:100B6A00E807F907C0F012161306E407F50798F02C
:100B7A00621B730B840B950B39F40A2661F0232B45
:100B8A00242B252B21F408950A2609F4A140A695C1
:080B9A008FEF811D811D0895FC
:100BA200CF93DF930F92CDB7DEB7898340E061E048
:100BB20081E00E94020540E062E081E00E940205BD
:100BC200E0919800F091990080818981808389EF7A
:100BD20090E00197F1F700C000000E9477060F90A5
:060BE200DF91CF910895A0
:100BE800CF93DF930F92CDB7DEB7898341E061E001
:100BF80081E00E94020540E062E081E00E94020577
:100C0800E0919800F091990080818981808389EF33
:100C180090E00197F1F700C000000E9477060F905E
:060C2800DF91CF91089559
:100C2E00CF93DF9300D0CDB7DEB789836A838981F6
:100C3E00813041F48A81803128F48A818A818058FA
:100C4E000E94D1058981823041F48A81803128F455
:100C5E008A818A8180540E94D1050F900F90DF9176
:040C6E00CF91089585
:100C720057FD9058440F551F59F05F3F71F047954B
:100C8200880F97FB991F61F09F3F79F08795089530
:100C9200121613061406551FF2CF4695F1DF08C04F
:100CA200161617061806991FF1CF8695710561056C
:040CB2000894089505
:100CB600CF93DF930F92CDB7DEB7898389818031D9
:100CC60029F460E082E00E9417060AC0898180321A
:100CD60039F40E94010760E081E00E94170619823C
:080CE6000F90DF91CF910895FA
:100CEE0041E063E081E00E94020583ED90E301970D
:100CFE00F1F700C0000040E063E081E00E940205D1
:0E0D0E0083ED90E30197F1F700C00000089517
:100D1C000E9410070E9441010E94610487E890E044
:100D2C000E94260460E070E082E090E00E941706CA
:020D3C00089518
:100D3E00092E0394000C11F4882352F0BB0F40F4DB
:100D4E00BF2B11F460FF04C06F5F7F4F8F4F9F4F1B
:020D5E000895F6
:100D6000CF93DF930F92CDB7DEB75F9B04C08CB1FA
:0E0D700089835F99FCCF0F90DF91CF9108959A
:100D7E0085ED90E00E949B048091D5009091D60065
:060D8E000E94F405089527
:100D9400EC010E941B070E941A07CE010E941C0747
:060DA400CE010E941807B9
:0E0DAA005058BB27AA270E943E030C949F06B8
:0E0DB80000240A941616170618060906089558
:0E0DC60000240A94121613061406050608955A
:0E0DD400E894BB2766277727CB0197F908958F
:0C0DE20097F99F6780E870E060E00895DA
:0A0DEE000E948E060E94BF06FDCF92
:0A0DF8000E94AD0508F48FEF089586
:080E020081E00E94D105089572
:080E0A000E9465020C949F0692
:080E12000E94D4020C949F061B
:060E1A0080E690E008955F
:060E200088E790E0089550
:060E26009FEF80EC08952F
:040E2C000C94000022
:040E30000E946400B8
:020E340008951F
:020E360008951D
:020E380008951B
:100E3A00CC00C900C600C300C000BD00BA00B7009C
:080E4A00B400B100AE0000008D
:0F0E5200D200CF000000030280250000FF000047
:090E610055415254204C6162001D
:030E6A000007027C
:030E6D000006027A
:030E700000050278
:030E730000040276
:030E760000030274
:030E790000020272
:030E7C0000010270
:030E7F000000026E
:030E820001030267
:030E850001020265
:030E880001010263
:030E8B0003000061
:030E8E000301025B
:010E91000C54
:010E9200015E
:00000001FF
