:100000000C943C000C9455040C947F040C94A904AB
:100010000C94A4050C94A4050C94A4050C94A405BC
:100020000C94A4050C94A4050C94A4050C94A405AC
:100030000C94A4050C94A4050C94A4050C94A4059C
:100040000C94A4050C94A4050C94A4050C94A4058C
:100050000C94A4050060006F000B56006F008D80AB
:10006000008D0093000B6500930097800097009827
:10007000000B6B009800998011241FBECFE5D8E0DB
:10008000DEBFCDBFE4E5F0E040E017C0B591A5913B
:1000900035912591059107FD0CC095918591EF0152
:1000A000F92FE82F05900D92A217B307D9F7FE019B
:1000B00004C01D92A217B307E1F7E837F40731F740
:0C00C0000E948C050C945A05F894FFCFA8
:1000CC000F931F93CF93DF9300D000D0CDB7DEB743
:1000DC008C016C838091970081110E94A503198279
:1000EC001A821B82198299818C81981708F0BAC0E8
:1000FC0021E030E0898190E0FC01EE0FFF1F8E0FB4
:10010C009F1FF801E80FF91F808183708A83898112
:10011C0090E0FC01EE0FFF1F8E0F9F1FF801E80F00
:10012C00F91F818187708B83898190E0FC01EE0F30
:10013C00FF1F8E0F9F1FF801E80FF91F828181119D
:10014C002DC08B81EA81F0E0EE0FFF1FE159FF4FCC
:10015C000190F081E02D4081B90102C0660F771F3C
:10016C008A95E2F7CB0180959095842380838B81CF
:10017C00EA81F0E0EE0FFF1FE958FF4F0190F0818C
:10018C00E02D4081B90102C0660F771F8A95E2F716
:10019C00CB0180959095842380835CC0898190E00D
:1001AC00FC01EE0FFF1F8E0F9F1FF801E80FF91FC8
:1001BC008281813071F580B78B7F80BF8B81EA8122
:1001CC00F0E0EE0FFF1FE159FF4F0190F081E02DA1
:1001DC004081B90102C0660F771F8A95E2F7CB0107
:1001EC0080959095842380838B81EA81F0E0EE0FDB
:1001FC00FF1FE958FF4F0190F081E02D4081B901BC
:10020C0002C0660F771F8A95E2F7CB01842B80839F
:10021C0021C0898190E0FC01EE0FFF1F8E0F9F1F04
:10022C00F801E80FF91F82818230A1F48B81EA81F9
:10023C00F0E0EE0FFF1FE159FF4F0190F081E02D30
:10024C004081B90102C0660F771F8A95E2F7CB0196
:10025C00842B808389818F5F898399818C81981706
:10026C0008F448CF0F900F900F900F90DF91CF9123
:06027C001F910F9108958F
:10028200CF93DF93EC0161E0888199810E9466003F
:1002920061E08A819B810E946600688579858A85F2
:1002A2009B850E94F0018F81813039F018F08230F5
:1002B20031F007C0539A5E9A04C0549A02C0539A0E
:1002C200549A80B5806880BD8C81813069F018F0C5
:1002D200823099F01BC080B5807C80BD80919800EF
:1002E200877F8093980012C080B5806380BD809123
:1002F200980088608093980009C080B58F7C8062E6
:1003020080BD8091980088608093980080B5806855
:1003120080BD8D81882319F0813029F007C080B516
:10032200877F80BD03C080B5886080BD80B580684E
:1003320080BD8E818230B1F028F4882341F0813073
:1003420059F024C08330A1F08430B9F01FC080B5C9
:10035200887F80BD52981AC080B5897F826080BD37
:10036200529814C080B5897F846080BD52980EC0B7
:1003720080B5866080BD529809C080B5866080BD18
:10038200529A809198008160809398008D859E8515
:1003920090939600809395008C858823A9F01CF495
:1003A2008F3F31F019C0813091F0823099F014C042
:1003B200F8948091980082608093980080919800D0
:1003C20084608093980008C0569A789405C0559A24
:0E03D200789402C0579A7894DF91CF910895E5
:1003E000CF92DF92EF92FF92CF93DF9300D000D0B5
:1003F00000D0CDB7DEB70E94E90320E030E040E84E
:1004000051E40E949A059B01AC0160E074E284EF24
:100410009AE40E94960520E030E040E85FE30E9405
:10042000650569837A838B839C831E821D82C980C4
:10043000DA80EB80FC8069817A818B819C810E94CB
:10044000260480E090E00E94E9039B01AC01C70113
:10045000B6010E94650520E030E040E05FE30E94C5
:1004600091058823A4F069817A818B819C810E9407
:1004700026046F5F7F4F7E836D838D819E8189B956
:1004800080B58F7780BD8D819E8190BD11C06981BF
:100490007A818B819C810E9426047E836D838D816D
:1004A0009E8189B980B58F7780BD8D819E8190BDF9
:1004B00026960FB6F894DEBF0FBECDBFDF91CF9169
:0A04C000FF90EF90DF90CF900895B9
:1004CA0010C00E94730558F00E946C0540F029F490
:1004DA005F3F29F00C94810551110C947B050C9413
:1004EA00A1050E94F70468F39923B1F3552391F308
:1004FA00951B550BBB27AA2762177307840738F089
:10050A009F5F5F4F220F331F441FAA1FA9F335D0E5
:10051A000E2E3AF0E0E832D091505040E695001C99
:10052A00CAF72BD0FE2F29D0660F771F881FBB1F53
:10053A00261737074807AB07B0E809F0BB0B802D31
:10054A00BF01FF2793585F4F3AF09E3F510578F05D
:10055A000C9481050C947B055F3FE4F3983ED4F339
:10056A00869577956795B795F7959F5FC9F7880F31
:10057A00911D9695879597F90895E1E0660F771F83
:10058A00881FBB1F621773078407BA0720F0621B14
:0E059A00730B840BBA0BEE1F88F7E0950895E3
:1005A8000FC00E946C0538F00E94730520F0952357
:1005B80011F00C9481050C94A10511240C947B0571
:1005C8000E94F70470F3959FC1F3950F50E0551FF3
:1005D800629FF001729FBB27F00DB11D639FAA2790
:1005E800F00DB11DAA1F649F6627B00DA11D661FDF
:1005F800829F2227B00DA11D621F739FB00DA11D00
:10060800621F839FA00D611D221F749F3327A00DB9
:10061800611D231F849F600D211D822F762F6A2F55
:1006280011249F5750409AF0F1F088234AF0EE0FBA
:10063800FF1FBB1F661F771F881F91505040A9F7E7
:100648009E3F510580F00C9481050C947B055F3F1B
:10065800E4F3983ED4F3869577956795B795F79523
:10066800E7959F5FC1F7FE2B880F911D969587959B
:0406780097F9089551
:10067C0011C00E946C0538F00E94730520F039F40B
:10068C009F3F19F426F40C94A1050EF4E095E7FBBA
:10069C000C948105E92F0E94F70458F3BA176207EE
:1006AC0073078407950720F079F4A6F50C947A0566
:1006BC000EF4E0950B2EBA2FA02D0B01B901900171
:1006CC000C01CA01A0011124FF27591B99F0593FB5
:1006DC0050F4503E68F11A16F040A22F232F342FFD
:1006EC004427585FF3CF469537952795A795F0404B
:1006FC005395C9F77EF41F16BA0B620B730B840B60
:10070C00BAF09150A1F0FF0FBB1F661F771F881F17
:10071C00C2F70EC0BA0F621F731F841F48F487956F
:10072C0077956795B795F7959E3F08F0B0CF939561
:0E073C00880F08F09927EE0F9795879508957E
:10074A00CF93DF93C7E7D0E08BE390E09983888368
:10075A00AFE6B0E08AE390E011969C938E93EFE7C0
:10076A00F0E089E390E09183808388E390E09B83C3
:10077A008A8387E390E013969C938E93129786E37D
:10078A0090E09383828385E390E09D838C8384E366
:10079A0090E015969C938E93149783E390E095834B
:1007AA00848382E390E09F838E8381E390E01796AF
:1007BA009C938E93169780E390E09783868310929A
:0807CA009700DF91CF91089523
:1007D200E89409C097FB3EF49095809570956195D9
:1007E2007F4F8F4F9F4F9923A9F0F92F96E9BB278F
:1007F2009395F695879577956795B795F111F8CF0B
:10080200FAF4BB0F11F460FF1BC06F5F7F4F8F4F75
:100812009F4F16C0882311F096E911C0772321F06B
:100822009EE8872F762F05C0662371F096E8862F03
:1008320070E060E02AF09A95660F771F881FDAF75A
:0A084200880F9695879597F90895A1
:10084C000E94FF0488F09F5798F0B92F9927B75151
:10085C00B0F0E1F0660F771F881F991F1AF0BA9558
:10086C00C9F714C0B13091F00E947A05B1E0089537
:10087C000C947A05672F782F8827B85F39F0B93F29
:10088C00CCF3869577956795B395D9F73EF490950B
:0E089C008095709561957F4F8F4F9F4F089507
:1008AA001F920F920FB60F9211242F933F934F93DB
:1008BA005F936F937F938F939F93AF93BF93EF93BE
:1008CA00FF938AB780648ABFE0918700F09188001D
:1008DA000995FF91EF91BF91AF919F918F917F9170
:1008EA006F915F914F913F912F910F900FBE0F9093
:0408FA001F9018959E
:1008FE001F920F920FB60F9211242F933F934F9387
:10090E005F936F937F938F939F93AF93BF93EF9369
:10091E00FF938AB780688ABFE0918900F0918A00C0
:10092E000995FF91EF91BF91AF919F918F917F911B
:10093E006F915F914F913F912F910F900FBE0F903E
:04094E001F90189549
:100952001F920F920FB60F9211242F933F934F9332
:100962005F936F937F938F939F93AF93BF93EF9315
:10097200FF938AB780628ABFE0918B00F0918C006E
:100982000995FF91EF91BF91AF919F918F917F91C7
:100992006F915F914F913F912F910F900FBE0F90EA
:0409A2001F901895F5
:1009A600990F0008550FAA0BE0E8FEEF161617067A
:1009B600E807F907C0F012161306E407F50798F0E2
:1009C600621B730B840B950B39F40A2661F0232BFB
:1009D600242B252B21F408950A2609F4A140A69577
:0809E6008FEF811D811D0895B2
:1009EE0057FD9058440F551F59F05F3F71F04795D2
:1009FE00880F97FB991F61F09F3F79F087950895B7
:100A0E00121613061406551FF2CF4695F1DF08C0D5
:100A1E00161617061806991FF1CF869571056105F2
:040A2E00089408958B
:100A32002091980021FF02C05D9BFECF209198007B
:100A420020FF0DC02AB1FC01408151814427517021
:100A520050FB20F92AB9808191818CB90895FC015B
:080A6200808191818CB9089597
:100A6A0081E490E0909394008093930083E990E06E
:100A7A000E9419052FE38DE093E0215080409040B9
:080A8A00E1F700C0000008952F
:100A9200092E0394000C11F4882352F0BB0F40F48A
:100AA200BF2B11F460FF04C06F5F7F4F8F4F9F4FCA
:020AB2000895A5
:100AB400EC010E94A9050E94A805CE010E94AA0586
:060AC400CE010E94A60510
:0E0ACA005058BB27AA270E943E030C944905F2
:0E0AD80000240A94161617061806090608953B
:0E0AE60000240A94121613061406050608953D
:0E0AF400E894BB2766277727CB0197F9089572
:0C0B020097F99F6780E870E060E00895BC
:0A0B0E000E949E050E944101089517
:0A0B18000E9487050E943505FDCFFD
:0A0B22000E94D30408F48FEF089539
:080B2C000E9465020C944905CA
:080B34000E94D4020C94490553
:060B3C0080E690E0089540
:060B42009FEF80EC089516
:040B48000C94000009
:040B4C000E9464009F
:020B5000089506
:020B5200089504
:020B5400089502
:0F0B560090008D000000030280250000FF0000CA
:030B65000300008A
:030B680003010284
:010B6B000188
:00000001FF
