:100000000C943A000C945A030C9484030C94AE03A1
:100010000C9456040C9456040C9456040C945604F8
:100020000C9456040C9456040C9456040C945604E8
:100030000C9456040C9456040C9456040C945604D8
:100040000C9456040C9456040C9456040C945604C8
:100050000C945604006000790008BA00790097807B
:10006000009700AA0008D300AA00AC8000AC00AE44
:100070000008E60011241FBECFE5D8E0DEBFCDBFEB
:10008000E4E5F0E040E017C0B591A59135912591E8
:10009000059107FD0CC095918591EF01F92FE82F8F
:1000A00005900D92A217B307D9F7FE0104C01D9267
:1000B000A217B307E1F7E337F40731F70E944B04C7
:0800C0000C944004F894FFCFFA
:1000C8000F931F93CF93DF930F92CDB7DEB78C01B9
:1000D8001982198289814091970050919800609106
:1000E800990070919A0090E0A0E0B0E0841795071D
:1000F800A607B70708F05AC18981F80198E0899FD7
:10010800E00DF11D112461E0808191810E94E001E0
:1001180085B7807F85BF84B78F7B84BF8981F801CD
:1001280098E0899FE00DF11D11248481811161C03F
:100138008981F80198E0899FE00DF11D11248281E1
:10014800813039F485B7816085BF85B7826085BF06
:1001580032C08981F80198E0899FE00DF11D1124D2
:100168008281823039F485B78E7F85BF85B78260FA
:1001780085BF21C08981F80198E0899FE00DF11DB4
:1001880011248281833039F485B7816085BF85B7B2
:100198008D7F85BF10C08981F80198E0899FE00DA7
:1001A800F11D11248281811106C085B78E7F85BF1C
:1001B80085B78D7F85BF8981F80198E0899FE00D1B
:1001C800F11D11248581813029F48BB780648BBFA0
:1001D8007894BDC08981F80198E0899FE00DF11DF0
:1001E800112485818111B3C08BB78F7B8BBFF894A5
:1001F800AEC08981F80198E0899FE00DF11D1124B6
:100208008481813009F061C08981F80198E0899F73
:10021800E00DF11D11248281813039F485B78460A5
:1002280085BF85B7886085BF32C08981F80198E0AD
:10023800899FE00DF11D11248281823039F485B740
:100248008B7F85BF85B7886085BF21C08981F8010C
:1002580098E0899FE00DF11D11248281833039F4E3
:1002680085B7846085BF85B7877F85BF10C08981C2
:10027800F80198E0899FE00DF11D11248281811118
:1002880006C085B78B7F85BF85B7877F85BF898186
:10029800F80198E0899FE00DF11D112485818130D6
:1002A80029F48BB780688BBF789451C08981F80195
:1002B80098E0899FE00DF11D11248581811147C0C7
:1002C8008BB78F778BBFF89442C08981F80198E08B
:1002D800899FE00DF11D112484818230C1F5898147
:1002E800F80198E0899FE00DF11D11248281813089
:1002F80021F484B7806484BF0DC08981F80198E037
:10030800899FE00DF11D11248281823019F484B790
:100318008F7B84BF8981F80198E0899FE00DF11DEA
:1003280011248581813029F48BB780628BBF789442
:100338000EC08981F80198E0899FE00DF11D112414
:100348008581811104C08BB78F7D8BBFF89489811B
:10035800F80198E0899FE00DF11D1124E38189815E
:10036800F0E0EE0FFF1FEF56FF4FD80198E0899F8E
:10037800A00DB11D112416968D919C91179791830C
:10038800808389818F5F898389814091970050910B
:1003980098006091990070919A0090E0A0E0B0E018
:1003A80084179507A607B70708F4A6CE0F90DF9124
:0803B800CF911F910F910895F0
:1003C0000F931F93CF93DF9300D000D0CDB7DEB74C
:1003D0008C016C838091AD0081110E94BB02198257
:1003E0001A821B82198299818C81981708F0BAC0F1
:1003F00021E030E0898190E0FC01EE0FFF1F8E0FBD
:100400009F1FF801E80FF91F808183708A8389811B
:1004100090E0FC01EE0FFF1F8E0F9F1FF801E80F09
:10042000F91F818187708B83898190E0FC01EE0F39
:10043000FF1F8E0F9F1FF801E80FF91F82818111A6
:100440002DC08B81EA81F0E0EE0FFF1FE758FF4FD0
:100450000190F081E02D4081B90102C0660F771F45
:100460008A95E2F7CB0180959095842380838B81D8
:10047000EA81F0E0EE0FFF1FEF57FF4F0190F08190
:10048000E02D4081B90102C0660F771F8A95E2F71F
:10049000CB0180959095842380835CC0898190E016
:1004A000FC01EE0FFF1F8E0F9F1FF801E80FF91FD1
:1004B0008281813071F580B78B7F80BF8B81EA812B
:1004C000F0E0EE0FFF1FE758FF4F0190F081E02DA5
:1004D0004081B90102C0660F771F8A95E2F7CB0110
:1004E00080959095842380838B81EA81F0E0EE0FE4
:1004F000FF1FEF57FF4F0190F081E02D4081B901C0
:1005000002C0660F771F8A95E2F7CB01842B8083A8
:1005100021C0898190E0FC01EE0FFF1F8E0F9F1F0D
:10052000F801E80FF91F82818230A1F48B81EA8102
:10053000F0E0EE0FFF1FE758FF4F0190F081E02D34
:100540004081B90102C0660F771F8A95E2F7CB019F
:10055000842B808389818F5F898399818C8198170F
:1005600008F448CF0F900F900F900F90DF91CF912C
:060570001F910F91089598
:10057600CF93DF93C1E8D0E08BE390E09983888343
:10058600A9E7B0E08AE390E011969C938E93E9E8A0
:10059600F0E089E390E09183808388E390E09B8399
:1005A6008A8387E390E013969C938E93129786E353
:1005B60090E09383828385E390E09D838C8384E33C
:1005C60090E015969C938E93149783E390E0958321
:1005D600848382E390E09F838E8381E390E0179685
:1005E6009C938E93169780E390E097838683109270
:0805F600AD00DF91CF910895E3
:1005FE000F931F93CF93DF930F92CDB7DEB70E9469
:10060E0053048C011982198299818091AC0098173C
:10061E00B8F4898190E0FC01EE0FFF1F8E0F9F1F33
:10062E00F801E80FF91F61E0808191810E94E001DD
:10063E0089818F5F898399818091AC00981748F3E7
:0C064E000F90DF91CF911F910F91089544
:10065A004130A1F4E82FF0E0EE0FFF1FEF57FF4FF4
:10066A000190F081E02D208181E090E002C0880FA6
:10067A00991F6A95E2F7822B80830895411114C06D
:10068A00E82FF0E0EE0FFF1FEF57FF4F0190F081C8
:10069A00E02D208181E090E002C0880F991F6A95C1
:0A06AA00E2F7809582238083089513
:1006B4001F920F920FB60F9211242F933F934F93D3
:1006C4005F936F937F938F939F93AF93BF93EF93B6
:1006D400FF938AB780648ABFE0919100F091920001
:1006E4000995FF91EF91BF91AF919F918F917F9168
:1006F4006F915F914F913F912F910F900FBE0F908B
:040704001F90189595
:100708001F920F920FB60F9211242F933F934F937E
:100718005F936F937F938F939F93AF93BF93EF9361
:10072800FF938AB780688ABFE0919300F0919400A4
:100738000995FF91EF91BF91AF919F918F917F9113
:100748006F915F914F913F912F910F900FBE0F9036
:040758001F90189541
:10075C001F920F920FB60F9211242F933F934F932A
:10076C005F936F937F938F939F93AF93BF93EF930D
:10077C00FF938AB780628ABFE0919500F091960052
:10078C000995FF91EF91BF91AF919F918F917F91BF
:10079C006F915F914F913F912F910F900FBE0F90E2
:0407AC001F901895ED
:1007B000FC019281913021F060F0923099F008951F
:1007C0000190F081E02D41E0618180810E942D0344
:1007D00008950190F081E02D40E0618180810E94C8
:1007E0002D0308950190F081E02D618180810E94A8
:0407F0000E04089556
:1007F4000E94500425E334E0FC01378326830E94E1
:1008040050040E9464000E94FF020E9453049093CB
:08081400AB008093AA000895D7
:10081C00E82FF0E0EE0FFF1FEF57FF4F0190F08134
:10082C00E02D208181E090E002C0880F991F6A952D
:08083C00E2F782278083089592
:100844008091AA009091AB0022E0FC0122830E94D7
:10085400D803FFEF29E688E1F15020408040E1F71A
:0608640000C00000089531
:10086A008091AA009091AB0021E0FC0125830396B8
:06087A000E94D80308955E
:10088000EC010E945B040E945A04CE010E945C04A9
:06089000CE010E94580495
:0A0896000E94FA030E942204FDCF25
:0608A00080E690E00895DF
:0608A60080E790E00895D8
:0408AC000C940000A8
:0408B0000E94620040
:0208B4000895A5
:0208B6000895A3
:0208B8000895A1
:1008BA009E000200000100009B00020101010000ED
:0908CA00A70000A40000A1000039
:0408D300020000001F
:0308D70003030018
:0308DA0003020016
:0308DD000007020F
:0308E00000030210
:0308E3000001020F
:0108E600030E
:0108E700010F
:00000001FF
